{
  "_format": "hh-sol-artifact-1",
  "contractName": "SimpleNFT",
  "sourceName": "contracts/SimpleNft.sol",
  "abi": [
    {
      "inputs": [],
      "stateMutability": "nonpayable",
      "type": "constructor"
    },
    {
      "inputs": [
        {
          "internalType": "address",
          "name": "sender",
          "type": "address"
        },
        {
          "internalType": "uint256",
          "name": "tokenId",
          "type": "uint256"
        },
        {
          "internalType": "address",
          "name": "owner",
          "type": "address"
        }
      ],
      "name": "ERC721IncorrectOwner",
      "type": "error"
    },
    {
      "inputs": [
        {
          "internalType": "address",
          "name": "operator",
          "type": "address"
        },
        {
          "internalType": "uint256",
          "name": "tokenId",
          "type": "uint256"
        }
      ],
      "name": "ERC721InsufficientApproval",
      "type": "error"
    },
    {
      "inputs": [
        {
          "internalType": "address",
          "name": "approver",
          "type": "address"
        }
      ],
      "name": "ERC721InvalidApprover",
      "type": "error"
    },
    {
      "inputs": [
        {
          "internalType": "address",
          "name": "operator",
          "type": "address"
        }
      ],
      "name": "ERC721InvalidOperator",
      "type": "error"
    },
    {
      "inputs": [
        {
          "internalType": "address",
          "name": "owner",
          "type": "address"
        }
      ],
      "name": "ERC721InvalidOwner",
      "type": "error"
    },
    {
      "inputs": [
        {
          "internalType": "address",
          "name": "receiver",
          "type": "address"
        }
      ],
      "name": "ERC721InvalidReceiver",
      "type": "error"
    },
    {
      "inputs": [
        {
          "internalType": "address",
          "name": "sender",
          "type": "address"
        }
      ],
      "name": "ERC721InvalidSender",
      "type": "error"
    },
    {
      "inputs": [
        {
          "internalType": "uint256",
          "name": "tokenId",
          "type": "uint256"
        }
      ],
      "name": "ERC721NonexistentToken",
      "type": "error"
    },
    {
      "inputs": [
        {
          "internalType": "address",
          "name": "owner",
          "type": "address"
        }
      ],
      "name": "OwnableInvalidOwner",
      "type": "error"
    },
    {
      "inputs": [
        {
          "internalType": "address",
          "name": "account",
          "type": "address"
        }
      ],
      "name": "OwnableUnauthorizedAccount",
      "type": "error"
    },
    {
      "anonymous": false,
      "inputs": [
        {
          "indexed": true,
          "internalType": "address",
          "name": "owner",
          "type": "address"
        },
        {
          "indexed": true,
          "internalType": "address",
          "name": "approved",
          "type": "address"
        },
        {
          "indexed": true,
          "internalType": "uint256",
          "name": "tokenId",
          "type": "uint256"
        }
      ],
      "name": "Approval",
      "type": "event"
    },
    {
      "anonymous": false,
      "inputs": [
        {
          "indexed": true,
          "internalType": "address",
          "name": "owner",
          "type": "address"
        },
        {
          "indexed": true,
          "internalType": "address",
          "name": "operator",
          "type": "address"
        },
        {
          "indexed": false,
          "internalType": "bool",
          "name": "approved",
          "type": "bool"
        }
      ],
      "name": "ApprovalForAll",
      "type": "event"
    },
    {
      "anonymous": false,
      "inputs": [
        {
          "indexed": true,
          "internalType": "address",
          "name": "previousOwner",
          "type": "address"
        },
        {
          "indexed": true,
          "internalType": "address",
          "name": "newOwner",
          "type": "address"
        }
      ],
      "name": "OwnershipTransferred",
      "type": "event"
    },
    {
      "anonymous": false,
      "inputs": [
        {
          "indexed": true,
          "internalType": "address",
          "name": "from",
          "type": "address"
        },
        {
          "indexed": true,
          "internalType": "address",
          "name": "to",
          "type": "address"
        },
        {
          "indexed": true,
          "internalType": "uint256",
          "name": "tokenId",
          "type": "uint256"
        }
      ],
      "name": "Transfer",
      "type": "event"
    },
    {
      "inputs": [
        {
          "internalType": "address",
          "name": "to",
          "type": "address"
        },
        {
          "internalType": "uint256",
          "name": "tokenId",
          "type": "uint256"
        }
      ],
      "name": "approve",
      "outputs": [],
      "stateMutability": "nonpayable",
      "type": "function"
    },
    {
      "inputs": [
        {
          "internalType": "address",
          "name": "owner",
          "type": "address"
        }
      ],
      "name": "balanceOf",
      "outputs": [
        {
          "internalType": "uint256",
          "name": "",
          "type": "uint256"
        }
      ],
      "stateMutability": "view",
      "type": "function"
    },
    {
      "inputs": [
        {
          "internalType": "uint256",
          "name": "tokenId",
          "type": "uint256"
        }
      ],
      "name": "getApproved",
      "outputs": [
        {
          "internalType": "address",
          "name": "",
          "type": "address"
        }
      ],
      "stateMutability": "view",
      "type": "function"
    },
    {
      "inputs": [
        {
          "internalType": "address",
          "name": "owner",
          "type": "address"
        },
        {
          "internalType": "address",
          "name": "operator",
          "type": "address"
        }
      ],
      "name": "isApprovedForAll",
      "outputs": [
        {
          "internalType": "bool",
          "name": "",
          "type": "bool"
        }
      ],
      "stateMutability": "view",
      "type": "function"
    },
    {
      "inputs": [
        {
          "internalType": "uint256",
          "name": "tokenId",
          "type": "uint256"
        }
      ],
      "name": "mint",
      "outputs": [
        {
          "internalType": "uint256",
          "name": "",
          "type": "uint256"
        }
      ],
      "stateMutability": "nonpayable",
      "type": "function"
    },
    {
      "inputs": [],
      "name": "name",
      "outputs": [
        {
          "internalType": "string",
          "name": "",
          "type": "string"
        }
      ],
      "stateMutability": "view",
      "type": "function"
    },
    {
      "inputs": [],
      "name": "owner",
      "outputs": [
        {
          "internalType": "address",
          "name": "",
          "type": "address"
        }
      ],
      "stateMutability": "view",
      "type": "function"
    },
    {
      "inputs": [
        {
          "internalType": "uint256",
          "name": "tokenId",
          "type": "uint256"
        }
      ],
      "name": "ownerOf",
      "outputs": [
        {
          "internalType": "address",
          "name": "",
          "type": "address"
        }
      ],
      "stateMutability": "view",
      "type": "function"
    },
    {
      "inputs": [],
      "name": "renounceOwnership",
      "outputs": [],
      "stateMutability": "nonpayable",
      "type": "function"
    },
    {
      "inputs": [
        {
          "internalType": "address",
          "name": "from",
          "type": "address"
        },
        {
          "internalType": "address",
          "name": "to",
          "type": "address"
        },
        {
          "internalType": "uint256",
          "name": "tokenId",
          "type": "uint256"
        }
      ],
      "name": "safeTransferFrom",
      "outputs": [],
      "stateMutability": "nonpayable",
      "type": "function"
    },
    {
      "inputs": [
        {
          "internalType": "address",
          "name": "from",
          "type": "address"
        },
        {
          "internalType": "address",
          "name": "to",
          "type": "address"
        },
        {
          "internalType": "uint256",
          "name": "tokenId",
          "type": "uint256"
        },
        {
          "internalType": "bytes",
          "name": "data",
          "type": "bytes"
        }
      ],
      "name": "safeTransferFrom",
      "outputs": [],
      "stateMutability": "nonpayable",
      "type": "function"
    },
    {
      "inputs": [
        {
          "internalType": "address",
          "name": "operator",
          "type": "address"
        },
        {
          "internalType": "bool",
          "name": "approved",
          "type": "bool"
        }
      ],
      "name": "setApprovalForAll",
      "outputs": [],
      "stateMutability": "nonpayable",
      "type": "function"
    },
    {
      "inputs": [
        {
          "internalType": "bytes4",
          "name": "interfaceId",
          "type": "bytes4"
        }
      ],
      "name": "supportsInterface",
      "outputs": [
        {
          "internalType": "bool",
          "name": "",
          "type": "bool"
        }
      ],
      "stateMutability": "view",
      "type": "function"
    },
    {
      "inputs": [],
      "name": "symbol",
      "outputs": [
        {
          "internalType": "string",
          "name": "",
          "type": "string"
        }
      ],
      "stateMutability": "view",
      "type": "function"
    },
    {
      "inputs": [
        {
          "internalType": "uint256",
          "name": "tokenId",
          "type": "uint256"
        }
      ],
      "name": "tokenURI",
      "outputs": [
        {
          "internalType": "string",
          "name": "",
          "type": "string"
        }
      ],
      "stateMutability": "view",
      "type": "function"
    },
    {
      "inputs": [
        {
          "internalType": "address",
          "name": "to",
          "type": "address"
        },
        {
          "internalType": "uint256",
          "name": "tokenId",
          "type": "uint256"
        }
      ],
      "name": "transfer",
      "outputs": [],
      "stateMutability": "nonpayable",
      "type": "function"
    },
    {
      "inputs": [
        {
          "internalType": "address",
          "name": "from",
          "type": "address"
        },
        {
          "internalType": "address",
          "name": "to",
          "type": "address"
        },
        {
          "internalType": "uint256",
          "name": "tokenId",
          "type": "uint256"
        }
      ],
      "name": "transferFrom",
      "outputs": [],
      "stateMutability": "nonpayable",
      "type": "function"
    },
    {
      "inputs": [
        {
          "internalType": "address",
          "name": "newOwner",
          "type": "address"
        }
      ],
      "name": "transferOwnership",
      "outputs": [],
      "stateMutability": "nonpayable",
      "type": "function"
    }
  ],
  "bytecode": "0x608060405234801561001057600080fd5b50336040518060400160405280600981526020017f53696d706c654e465400000000000000000000000000000000000000000000008152506040518060400160405280600481526020017f534e465400000000000000000000000000000000000000000000000000000000815250816000908161008d919061043d565b50806001908161009d919061043d565b505050600073ffffffffffffffffffffffffffffffffffffffff168173ffffffffffffffffffffffffffffffffffffffff16036101125760006040517f1e4fbdf70000000000000000000000000000000000000000000000000000000081526004016101099190610550565b60405180910390fd5b6101218161012760201b60201c565b5061056b565b6000600660009054906101000a900473ffffffffffffffffffffffffffffffffffffffff16905081600660006101000a81548173ffffffffffffffffffffffffffffffffffffffff021916908373ffffffffffffffffffffffffffffffffffffffff1602179055508173ffffffffffffffffffffffffffffffffffffffff168173ffffffffffffffffffffffffffffffffffffffff167f8be0079c531659141344cd1fd0a4f28419497f9722a3daafe3b4186f6b6457e060405160405180910390a35050565b600081519050919050565b7f4e487b7100000000000000000000000000000000000000000000000000000000600052604160045260246000fd5b7f4e487b7100000000000000000000000000000000000000000000000000000000600052602260045260246000fd5b6000600282049050600182168061026e57607f821691505b60208210810361028157610280610227565b5b50919050565b60008190508160005260206000209050919050565b60006020601f8301049050919050565b600082821b905092915050565b6000600883026102e97fffffffffffffffffffffffffffffffffffffffffffffffffffffffffffffffff826102ac565b6102f386836102ac565b95508019841693508086168417925050509392505050565b6000819050919050565b6000819050919050565b600061033a6103356103308461030b565b610315565b61030b565b9050919050565b6000819050919050565b6103548361031f565b61036861036082610341565b8484546102b9565b825550505050565b600090565b61037d610370565b61038881848461034b565b505050565b5b818110156103ac576103a1600082610375565b60018101905061038e565b5050565b601f8211156103f1576103c281610287565b6103cb8461029c565b810160208510156103da578190505b6103ee6103e68561029c565b83018261038d565b50505b505050565b600082821c905092915050565b6000610414600019846008026103f6565b1980831691505092915050565b600061042d8383610403565b9150826002028217905092915050565b610446826101ed565b67ffffffffffffffff81111561045f5761045e6101f8565b5b6104698254610256565b6104748282856103b0565b600060209050601f8311600181146104a75760008415610495578287015190505b61049f8582610421565b865550610507565b601f1984166104b586610287565b60005b828110156104dd578489015182556001820191506020850194506020810190506104b8565b868310156104fa57848901516104f6601f891682610403565b8355505b6001600288020188555050505b505050505050565b600073ffffffffffffffffffffffffffffffffffffffff82169050919050565b600061053a8261050f565b9050919050565b61054a8161052f565b82525050565b60006020820190506105656000830184610541565b92915050565b6123138061057a6000396000f3fe608060405234801561001057600080fd5b50600436106101165760003560e01c80638da5cb5b116100a2578063a9059cbb11610071578063a9059cbb146102df578063b88d4fde146102fb578063c87b56dd14610317578063e985e9c514610347578063f2fde38b1461037757610116565b80638da5cb5b1461025757806395d89b4114610275578063a0712d6814610293578063a22cb465146102c357610116565b806323b872dd116100e957806323b872dd146101b557806342842e0e146101d15780636352211e146101ed57806370a082311461021d578063715018a61461024d57610116565b806301ffc9a71461011b57806306fdde031461014b578063081812fc14610169578063095ea7b314610199575b600080fd5b61013560048036038101906101309190611af1565b610393565b6040516101429190611b39565b60405180910390f35b610153610475565b6040516101609190611be4565b60405180910390f35b610183600480360381019061017e9190611c3c565b610507565b6040516101909190611caa565b60405180910390f35b6101b360048036038101906101ae9190611cf1565b610523565b005b6101cf60048036038101906101ca9190611d31565b610539565b005b6101eb60048036038101906101e69190611d31565b61063b565b005b61020760048036038101906102029190611c3c565b61065b565b6040516102149190611caa565b60405180910390f35b61023760048036038101906102329190611d84565b61066d565b6040516102449190611dc0565b60405180910390f35b610255610727565b005b61025f61073b565b60405161026c9190611caa565b60405180910390f35b61027d610765565b60405161028a9190611be4565b60405180910390f35b6102ad60048036038101906102a89190611c3c565b6107f7565b6040516102ba9190611dc0565b60405180910390f35b6102dd60048036038101906102d89190611e07565b61080b565b005b6102f960048036038101906102f49190611cf1565b610821565b005b61031560048036038101906103109190611f7c565b6108a6565b005b610331600480360381019061032c9190611c3c565b6108cb565b60405161033e9190611be4565b60405180910390f35b610361600480360381019061035c9190611fff565b610934565b60405161036e9190611b39565b60405180910390f35b610391600480360381019061038c9190611d84565b6109c8565b005b60007f80ac58cd000000000000000000000000000000000000000000000000000000007bffffffffffffffffffffffffffffffffffffffffffffffffffffffff1916827bffffffffffffffffffffffffffffffffffffffffffffffffffffffff1916148061045e57507f5b5e139f000000000000000000000000000000000000000000000000000000007bffffffffffffffffffffffffffffffffffffffffffffffffffffffff1916827bffffffffffffffffffffffffffffffffffffffffffffffffffffffff1916145b8061046e575061046d82610a4e565b5b9050919050565b6060600080546104849061206e565b80601f01602080910402602001604051908101604052809291908181526020018280546104b09061206e565b80156104fd5780601f106104d2576101008083540402835291602001916104fd565b820191906000526020600020905b8154815290600101906020018083116104e057829003601f168201915b5050505050905090565b600061051282610ab8565b5061051c82610b40565b9050919050565b6105358282610530610b7d565b610b85565b5050565b600073ffffffffffffffffffffffffffffffffffffffff168273ffffffffffffffffffffffffffffffffffffffff16036105ab5760006040517f64a0ae920000000000000000000000000000000000000000000000000000000081526004016105a29190611caa565b60405180910390fd5b60006105bf83836105ba610b7d565b610b97565b90508373ffffffffffffffffffffffffffffffffffffffff168173ffffffffffffffffffffffffffffffffffffffff1614610635578382826040517f64283d7b00000000000000000000000000000000000000000000000000000000815260040161062c9392919061209f565b60405180910390fd5b50505050565b610656838383604051806020016040528060008152506108a6565b505050565b600061066682610ab8565b9050919050565b60008073ffffffffffffffffffffffffffffffffffffffff168273ffffffffffffffffffffffffffffffffffffffff16036106e05760006040517f89c62b640000000000000000000000000000000000000000000000000000000081526004016106d79190611caa565b60405180910390fd5b600360008373ffffffffffffffffffffffffffffffffffffffff1673ffffffffffffffffffffffffffffffffffffffff168152602001908152602001600020549050919050565b61072f610db1565b6107396000610e38565b565b6000600660009054906101000a900473ffffffffffffffffffffffffffffffffffffffff16905090565b6060600180546107749061206e565b80601f01602080910402602001604051908101604052809291908181526020018280546107a09061206e565b80156107ed5780601f106107c2576101008083540402835291602001916107ed565b820191906000526020600020905b8154815290600101906020018083116107d057829003601f168201915b5050505050905090565b60006108033383610efe565b819050919050565b61081d610816610b7d565b8383610f1c565b5050565b3373ffffffffffffffffffffffffffffffffffffffff166108418261065b565b73ffffffffffffffffffffffffffffffffffffffff1614610897576040517f08c379a000000000000000000000000000000000000000000000000000000000815260040161088e90612122565b60405180910390fd5b6108a233838361108b565b5050565b6108b1848484610539565b6108c56108bc610b7d565b858585856111f8565b50505050565b60606108d682610ab8565b5060006108e16113a9565b90506000815111610901576040518060200160405280600081525061092c565b8061090b846113c0565b60405160200161091c92919061217e565b6040516020818303038152906040525b915050919050565b6000600560008473ffffffffffffffffffffffffffffffffffffffff1673ffffffffffffffffffffffffffffffffffffffff16815260200190815260200160002060008373ffffffffffffffffffffffffffffffffffffffff1673ffffffffffffffffffffffffffffffffffffffff16815260200190815260200160002060009054906101000a900460ff16905092915050565b6109d0610db1565b600073ffffffffffffffffffffffffffffffffffffffff168173ffffffffffffffffffffffffffffffffffffffff1603610a425760006040517f1e4fbdf7000000000000000000000000000000000000000000000000000000008152600401610a399190611caa565b60405180910390fd5b610a4b81610e38565b50565b60007f01ffc9a7000000000000000000000000000000000000000000000000000000007bffffffffffffffffffffffffffffffffffffffffffffffffffffffff1916827bffffffffffffffffffffffffffffffffffffffffffffffffffffffff1916149050919050565b600080610ac48361148e565b9050600073ffffffffffffffffffffffffffffffffffffffff168173ffffffffffffffffffffffffffffffffffffffff1603610b3757826040517f7e273289000000000000000000000000000000000000000000000000000000008152600401610b2e9190611dc0565b60405180910390fd5b80915050919050565b60006004600083815260200190815260200160002060009054906101000a900473ffffffffffffffffffffffffffffffffffffffff169050919050565b600033905090565b610b9283838360016114cb565b505050565b600080610ba38461148e565b9050600073ffffffffffffffffffffffffffffffffffffffff168373ffffffffffffffffffffffffffffffffffffffff1614610be557610be4818486611690565b5b600073ffffffffffffffffffffffffffffffffffffffff168173ffffffffffffffffffffffffffffffffffffffff1614610c7657610c276000856000806114cb565b6001600360008373ffffffffffffffffffffffffffffffffffffffff1673ffffffffffffffffffffffffffffffffffffffff168152602001908152602001600020600082825403925050819055505b600073ffffffffffffffffffffffffffffffffffffffff168573ffffffffffffffffffffffffffffffffffffffff1614610cf9576001600360008773ffffffffffffffffffffffffffffffffffffffff1673ffffffffffffffffffffffffffffffffffffffff168152602001908152602001600020600082825401925050819055505b846002600086815260200190815260200160002060006101000a81548173ffffffffffffffffffffffffffffffffffffffff021916908373ffffffffffffffffffffffffffffffffffffffff160217905550838573ffffffffffffffffffffffffffffffffffffffff168273ffffffffffffffffffffffffffffffffffffffff167fddf252ad1be2c89b69c2b068fc378daa952ba7f163c4a11628f55a4df523b3ef60405160405180910390a4809150509392505050565b610db9610b7d565b73ffffffffffffffffffffffffffffffffffffffff16610dd761073b565b73ffffffffffffffffffffffffffffffffffffffff1614610e3657610dfa610b7d565b6040517f118cdaa7000000000000000000000000000000000000000000000000000000008152600401610e2d9190611caa565b60405180910390fd5b565b6000600660009054906101000a900473ffffffffffffffffffffffffffffffffffffffff16905081600660006101000a81548173ffffffffffffffffffffffffffffffffffffffff021916908373ffffffffffffffffffffffffffffffffffffffff1602179055508173ffffffffffffffffffffffffffffffffffffffff168173ffffffffffffffffffffffffffffffffffffffff167f8be0079c531659141344cd1fd0a4f28419497f9722a3daafe3b4186f6b6457e060405160405180910390a35050565b610f18828260405180602001604052806000815250611754565b5050565b600073ffffffffffffffffffffffffffffffffffffffff168273ffffffffffffffffffffffffffffffffffffffff1603610f8d57816040517f5b08ba18000000000000000000000000000000000000000000000000000000008152600401610f849190611caa565b60405180910390fd5b80600560008573ffffffffffffffffffffffffffffffffffffffff1673ffffffffffffffffffffffffffffffffffffffff16815260200190815260200160002060008473ffffffffffffffffffffffffffffffffffffffff1673ffffffffffffffffffffffffffffffffffffffff16815260200190815260200160002060006101000a81548160ff0219169083151502179055508173ffffffffffffffffffffffffffffffffffffffff168373ffffffffffffffffffffffffffffffffffffffff167f17307eab39ab6107e8899845ad3d59bd9653f200f220920489ca2b5937696c318360405161107e9190611b39565b60405180910390a3505050565b600073ffffffffffffffffffffffffffffffffffffffff168273ffffffffffffffffffffffffffffffffffffffff16036110fd5760006040517f64a0ae920000000000000000000000000000000000000000000000000000000081526004016110f49190611caa565b60405180910390fd5b600061110b83836000610b97565b9050600073ffffffffffffffffffffffffffffffffffffffff168173ffffffffffffffffffffffffffffffffffffffff160361117e57816040517f7e2732890000000000000000000000000000000000000000000000000000000081526004016111759190611dc0565b60405180910390fd5b8373ffffffffffffffffffffffffffffffffffffffff168173ffffffffffffffffffffffffffffffffffffffff16146111f2578382826040517f64283d7b0000000000000000000000000000000000000000000000000000000081526004016111e99392919061209f565b60405180910390fd5b50505050565b60008373ffffffffffffffffffffffffffffffffffffffff163b11156113a2578273ffffffffffffffffffffffffffffffffffffffff1663150b7a02868685856040518563ffffffff1660e01b815260040161125794939291906121f7565b6020604051808303816000875af192505050801561129357506040513d601f19601f820116820180604052508101906112909190612258565b60015b611317573d80600081146112c3576040519150601f19603f3d011682016040523d82523d6000602084013e6112c8565b606091505b50600081510361130f57836040517f64a0ae920000000000000000000000000000000000000000000000000000000081526004016113069190611caa565b60405180910390fd5b805181602001fd5b63150b7a0260e01b7bffffffffffffffffffffffffffffffffffffffffffffffffffffffff1916817bffffffffffffffffffffffffffffffffffffffffffffffffffffffff1916146113a057836040517f64a0ae920000000000000000000000000000000000000000000000000000000081526004016113979190611caa565b60405180910390fd5b505b5050505050565b606060405180602001604052806000815250905090565b6060600060016113cf84611778565b01905060008167ffffffffffffffff8111156113ee576113ed611e51565b5b6040519080825280601f01601f1916602001820160405280156114205781602001600182028036833780820191505090505b509050600082602001820190505b600115611483578080600190039150507f3031323334353637383961626364656600000000000000000000000000000000600a86061a8153600a858161147757611476612285565b5b0494506000850361142e575b819350505050919050565b60006002600083815260200190815260200160002060009054906101000a900473ffffffffffffffffffffffffffffffffffffffff169050919050565b80806115045750600073ffffffffffffffffffffffffffffffffffffffff168273ffffffffffffffffffffffffffffffffffffffff1614155b1561163857600061151484610ab8565b9050600073ffffffffffffffffffffffffffffffffffffffff168373ffffffffffffffffffffffffffffffffffffffff161415801561157f57508273ffffffffffffffffffffffffffffffffffffffff168173ffffffffffffffffffffffffffffffffffffffff1614155b801561159257506115908184610934565b155b156115d457826040517fa9fbf51f0000000000000000000000000000000000000000000000000000000081526004016115cb9190611caa565b60405180910390fd5b811561163657838573ffffffffffffffffffffffffffffffffffffffff168273ffffffffffffffffffffffffffffffffffffffff167f8c5be1e5ebec7d5bd14f71427d1e84f3dd0314c0f7b2291e5b200ac8c7c3b92560405160405180910390a45b505b836004600085815260200190815260200160002060006101000a81548173ffffffffffffffffffffffffffffffffffffffff021916908373ffffffffffffffffffffffffffffffffffffffff16021790555050505050565b61169b8383836118cb565b61174f57600073ffffffffffffffffffffffffffffffffffffffff168373ffffffffffffffffffffffffffffffffffffffff160361171057806040517f7e2732890000000000000000000000000000000000000000000000000000000081526004016117079190611dc0565b60405180910390fd5b81816040517f177e802f0000000000000000000000000000000000000000000000000000000081526004016117469291906122b4565b60405180910390fd5b505050565b61175e838361198c565b611773611769610b7d565b60008585856111f8565b505050565b600080600090507a184f03e93ff9f4daa797ed6e38ed64bf6a1f01000000000000000083106117d6577a184f03e93ff9f4daa797ed6e38ed64bf6a1f01000000000000000083816117cc576117cb612285565b5b0492506040810190505b6d04ee2d6d415b85acef81000000008310611813576d04ee2d6d415b85acef8100000000838161180957611808612285565b5b0492506020810190505b662386f26fc10000831061184257662386f26fc10000838161183857611837612285565b5b0492506010810190505b6305f5e100831061186b576305f5e100838161186157611860612285565b5b0492506008810190505b612710831061189057612710838161188657611885612285565b5b0492506004810190505b606483106118b357606483816118a9576118a8612285565b5b0492506002810190505b600a83106118c2576001810190505b80915050919050565b60008073ffffffffffffffffffffffffffffffffffffffff168373ffffffffffffffffffffffffffffffffffffffff161415801561198357508273ffffffffffffffffffffffffffffffffffffffff168473ffffffffffffffffffffffffffffffffffffffff16148061194457506119438484610934565b5b8061198257508273ffffffffffffffffffffffffffffffffffffffff1661196a83610b40565b73ffffffffffffffffffffffffffffffffffffffff16145b5b90509392505050565b600073ffffffffffffffffffffffffffffffffffffffff168273ffffffffffffffffffffffffffffffffffffffff16036119fe5760006040517f64a0ae920000000000000000000000000000000000000000000000000000000081526004016119f59190611caa565b60405180910390fd5b6000611a0c83836000610b97565b9050600073ffffffffffffffffffffffffffffffffffffffff168173ffffffffffffffffffffffffffffffffffffffff1614611a805760006040517f73c6ac6e000000000000000000000000000000000000000000000000000000008152600401611a779190611caa565b60405180910390fd5b505050565b6000604051905090565b600080fd5b600080fd5b60007fffffffff0000000000000000000000000000000000000000000000000000000082169050919050565b611ace81611a99565b8114611ad957600080fd5b50565b600081359050611aeb81611ac5565b92915050565b600060208284031215611b0757611b06611a8f565b5b6000611b1584828501611adc565b91505092915050565b60008115159050919050565b611b3381611b1e565b82525050565b6000602082019050611b4e6000830184611b2a565b92915050565b600081519050919050565b600082825260208201905092915050565b60005b83811015611b8e578082015181840152602081019050611b73565b60008484015250505050565b6000601f19601f8301169050919050565b6000611bb682611b54565b611bc08185611b5f565b9350611bd0818560208601611b70565b611bd981611b9a565b840191505092915050565b60006020820190508181036000830152611bfe8184611bab565b905092915050565b6000819050919050565b611c1981611c06565b8114611c2457600080fd5b50565b600081359050611c3681611c10565b92915050565b600060208284031215611c5257611c51611a8f565b5b6000611c6084828501611c27565b91505092915050565b600073ffffffffffffffffffffffffffffffffffffffff82169050919050565b6000611c9482611c69565b9050919050565b611ca481611c89565b82525050565b6000602082019050611cbf6000830184611c9b565b92915050565b611cce81611c89565b8114611cd957600080fd5b50565b600081359050611ceb81611cc5565b92915050565b60008060408385031215611d0857611d07611a8f565b5b6000611d1685828601611cdc565b9250506020611d2785828601611c27565b9150509250929050565b600080600060608486031215611d4a57611d49611a8f565b5b6000611d5886828701611cdc565b9350506020611d6986828701611cdc565b9250506040611d7a86828701611c27565b9150509250925092565b600060208284031215611d9a57611d99611a8f565b5b6000611da884828501611cdc565b91505092915050565b611dba81611c06565b82525050565b6000602082019050611dd56000830184611db1565b92915050565b611de481611b1e565b8114611def57600080fd5b50565b600081359050611e0181611ddb565b92915050565b60008060408385031215611e1e57611e1d611a8f565b5b6000611e2c85828601611cdc565b9250506020611e3d85828601611df2565b9150509250929050565b600080fd5b600080fd5b7f4e487b7100000000000000000000000000000000000000000000000000000000600052604160045260246000fd5b611e8982611b9a565b810181811067ffffffffffffffff82111715611ea857611ea7611e51565b5b80604052505050565b6000611ebb611a85565b9050611ec78282611e80565b919050565b600067ffffffffffffffff821115611ee757611ee6611e51565b5b611ef082611b9a565b9050602081019050919050565b82818337600083830152505050565b6000611f1f611f1a84611ecc565b611eb1565b905082815260208101848484011115611f3b57611f3a611e4c565b5b611f46848285611efd565b509392505050565b600082601f830112611f6357611f62611e47565b5b8135611f73848260208601611f0c565b91505092915050565b60008060008060808587031215611f9657611f95611a8f565b5b6000611fa487828801611cdc565b9450506020611fb587828801611cdc565b9350506040611fc687828801611c27565b925050606085013567ffffffffffffffff811115611fe757611fe6611a94565b5b611ff387828801611f4e565b91505092959194509250565b6000806040838503121561201657612015611a8f565b5b600061202485828601611cdc565b925050602061203585828601611cdc565b9150509250929050565b7f4e487b7100000000000000000000000000000000000000000000000000000000600052602260045260246000fd5b6000600282049050600182168061208657607f821691505b6020821081036120995761209861203f565b5b50919050565b60006060820190506120b46000830186611c9b565b6120c16020830185611db1565b6120ce6040830184611c9b565b949350505050565b7f596f7520646f206e6f74206f776e207468697320746f6b656e00000000000000600082015250565b600061210c601983611b5f565b9150612117826120d6565b602082019050919050565b6000602082019050818103600083015261213b816120ff565b9050919050565b600081905092915050565b600061215882611b54565b6121628185612142565b9350612172818560208601611b70565b80840191505092915050565b600061218a828561214d565b9150612196828461214d565b91508190509392505050565b600081519050919050565b600082825260208201905092915050565b60006121c9826121a2565b6121d381856121ad565b93506121e3818560208601611b70565b6121ec81611b9a565b840191505092915050565b600060808201905061220c6000830187611c9b565b6122196020830186611c9b565b6122266040830185611db1565b818103606083015261223881846121be565b905095945050505050565b60008151905061225281611ac5565b92915050565b60006020828403121561226e5761226d611a8f565b5b600061227c84828501612243565b91505092915050565b7f4e487b7100000000000000000000000000000000000000000000000000000000600052601260045260246000fd5b60006040820190506122c96000830185611c9b565b6122d66020830184611db1565b939250505056fea26469706673582212206b5b2eb982490903b8bfc77a01b9279d21ddde1cd6ba9e31b9eade803a42c6af64736f6c634300081c0033",
  "linkReferences": {},
  "deployedLinkReferences": {}
}